:100000000C945E000C9477010C94A4010C9486006F
:100010000C9486000C9486000C9486000C949A0232
:100020000C9486000C9486000C9486000C94860038
:100030000C9486000C9486000C9486000C94860028
:100040000C94A7000C9486000C94C5030C9408042F
:100050000C9486000C9486000C9486000C94860008
:100060000C9486000C94860000000007000201003A
:100070000003040600000000000000000102040864
:100080001020408001020408102001020408102002
:10009000040404040404040402020202020203032E
:1000A0000303030300000000250028002B000000CC
:1000B0000000240027002A000200430411241FBE70
:1000C000CFEFD8E0DEBFCDBF11E0A0E0B1E0E2E1CC
:1000D000F9E002C005900D92A431B107D9F721E0F3
:1000E000A4E1B1E001C01D92A23DB207E1F710E02A
:1000F000CEE5D0E004C02197FE010E948104CD35F9
:10010000D107C9F70E941E030C947E040C940000D2
:1001100061E0809100010C94FA01CF93DF93C0E07D
:10012000D1E061E088810E94360268EE73E080E0F1
:1001300090E00E94160160E088810E94360268EE1D
:1001400073E080E090E0DF91CF910C9416011F9254
:100150000F920FB60F9211242F933F938F939F937B
:10016000AF93BF938091150190911601A091170153
:10017000B09118013091140123E0230F2D3720F4A2
:100180000196A11DB11D05C026E8230F0296A11DF1
:10019000B11D209314018093150190931601A09333
:1001A0001701B09318018091190190911A01A09143
:1001B0001B01B0911C010196A11DB11D8093190175
:1001C00090931A01A0931B01B0931C01BF91AF91B2
:1001D0009F918F913F912F910F900FBE0F901F9085
:1001E00018953FB7F8948091190190911A01A09148
:1001F0001B01B0911C0126B5A89B05C02F3F19F02B
:100200000196A11DB11D3FBFBA2FA92F982F882796
:10021000820F911DA11DB11DBC01CD0142E0660FF1
:10022000771F881F991F4A95D1F70895CF92DF92C3
:10023000EF92FF92CF93DF936B017C010E94F1005C
:10024000EB01C114D104E104F10479F00E94F10042
:100250006C1B7D0B683E7340A0F381E0C81AD10887
:10026000E108F108C851DC4FECCFDF91CF91FF904E
:10027000EF90DF90CF900895789484B5826084BD2C
:1002800084B5816084BD85B5826085BD85B581609A
:1002900085BDEEE6F0E0808181608083E1E8F0E0FA
:1002A0001082808182608083808181608083E0E829
:1002B000F0E0808181608083E1EBF0E08081846008
:1002C0008083E0EBF0E0808181608083EAE7F0E00A
:1002D000808184608083808182608083808181606E
:1002E00080838081806880831092C10008951F926E
:1002F0000F920FB60F9211242F933F934F935F935A
:100300006F937F938F939F93AF93BF93EF93FF93DD
:1003100080911D0190911E01892B29F0E0911D0112
:10032000F0911E010995FF91EF91BF91AF919F91BF
:100330008F917F916F915F914F913F912F910F908E
:100340000FBE0F901F9018951F920F920FB60F922D
:1003500011242F933F934F935F936F937F938F93CA
:100360009F93AF93BF93EF93FF9380911F01909161
:100370002001892B29F0E0911F01F09120010995BE
:10038000FF91EF91BF91AF919F918F917F916F916D
:100390005F914F913F912F910F900FBE0F901F9043
:1003A0001895833081F028F4813099F08230A1F0E3
:1003B00008958630A9F08730B9F08430D1F4809167
:1003C00080008F7D03C0809180008F7780938000B4
:1003D000089584B58F7702C084B58F7D84BD08955C
:1003E0008091B0008F7703C08091B0008F7D8093A3
:1003F000B0000895CF93DF9390E0FC01E458FF4FE5
:100400002491FC01E057FF4F8491882361F190E033
:10041000880F991FFC01E255FF4FC591D491FC0153
:10042000EC55FF4FA591B491611109C09FB7F894A5
:100430008881209582238883EC912E230BC0623023
:1004400061F49FB7F8948881322F30958323888395
:10045000EC912E2B2C939FBF06C08FB7F894E881A8
:100460002E2B28838FBFDF91CF9108951F93CF93B9
:10047000DF93282F30E0F901E859FF4F8491F9010B
:10048000E458FF4FD491F901E057FF4FC491CC23BA
:10049000C1F0162F81110E94D101EC2FF0E0EE0F78
:1004A000FF1FEC55FF4FA591B4919FB7F894111120
:1004B00004C08C91D095D82302C0EC91DE2BDC9344
:1004C0009FBFDF91CF911F910895813039F018F0CF
:1004D000823051F0089510926E00089580916F005F
:1004E0008D7F80936F000895809170008D7F809341
:1004F000700081E08093B0008091B100887F8460BB
:100500008093B1001092B3000895CF93C82F8091CB
:100510000201C81307C0E8EBF0E084919FEF9093CD
:10052000020101C08FEF0E94650260E08C2FCF9125
:100530000C9436021F920F920FB60F9211242F9334
:100540003F934F935F936F937F938F939F93AF935B
:10055000BF93EF93FF938091240190912501A09187
:100560002601B0912701892B8A2B8B2B51F1909179
:100570002101E0912201F09123018081892780836C
:100580008091240190912501A0912601B09127012D
:10059000181619061A061B06C4F4809124019091BE
:1005A0002501A0912601B09127010197A109B10968
:1005B0008093240190932501A0932601B0932701F5
:1005C00004C0809102010E948502FF91EF91BF91CA
:1005D000AF919F918F917F916F915F914F913F91DB
:1005E0002F910F900FBE0F901F901895CF92DF9212
:1005F000EF92FF920F931F93CF93DF936C01EB0168
:100600007B01E40EF51E00E010E0CE15DF0561F081
:100610006991D601ED91FC910190F081E02DC60128
:100620000995080F191FF1CFC801DF91CF911F91D4
:100630000F91FF90EF90DF90CF9008950E943C01C2
:100640000E948800CFEFD3E00E948D002097E1F355
:100650000E94FF03F9CFFC0124853585F901E05C98
:10066000FF4F80819181329620813181821B930BD3
:100670008F7399270895DC011C96ED91FC911D97CD
:10068000DF01A05CBF4F2D913C91119712968D9187
:100690009C9111972817390739F08D919C91E80F9B
:1006A000F91F808190E008958FEF9FEF0895FC017E
:1006B000A485B585FD01E05CFF4F20813181329634
:1006C000808191812817390779F080819181A80F65
:1006D000B91F8C91208131812F5F3F4F2F733327BA
:1006E0003183208390E008958FEF9FEF0895FC0100
:1006F00081A1882329F0A489B5898C9186FFFBCF3D
:1007000011A208950F931F93CF93DF93FC01A68549
:10071000B7858D01005C1F4FE801888199810196A2
:100720008F739927AD014E5B5F4FEA0128813981B4
:1007300028173907D1F3E80128813981A20FB31FA7
:100740006C93A685B785A05CBF4F11969C938E9342
:10075000A689B7892C9181E090E0078C02C0880FB0
:10076000991F0A94E2F7822B8C9381E081A304887D
:10077000F589E02D80818064808381E090E0DF91C5
:10078000CF911F910F91089508951F920F920FB668
:100790000F9211242F934F935F938F939F93EF9317
:1007A000FF938091C00082FD1CC02091C600809103
:1007B000CE019091CF014091D0015091D10101968D
:1007C0008F7399274817590771F0E091CE01F09186
:1007D000CF01E257FE4F20839093CF018093CE014B
:1007E00002C08091C600FF91EF919F918F915F9120
:1007F0004F912F910F900FBE0F901F90189588E288
:1008000091E00E942B03892B11F00C94C4030895EE
:100810001F920F920FB60F9211242F933F938F9335
:100820009F93EF93FF9320918A0130918B018091E8
:100830008C0190918D012817390731F48091C10006
:100840008F7D8093C10014C0E0918C01F0918D01E7
:10085000E65BFE4F208180918C0190918D01019685
:100860008F73992790938D0180938C012093C600FC
:10087000FF91EF919F918F913F912F910F900FBE1C
:100880000F901F901895E8E2F1E01382128288EE33
:1008900093E0A0E0B0E084839583A683B78387E0EC
:1008A00091E0918380838EE891E0958784878AE444
:1008B00091E09787868785EC90E0918B808B84EC24
:1008C00090E0938B828B80EC90E0958B848B81EC15
:1008D00090E0978B868B82EC90E0918F808F86ECF6
:1008E00090E0938F828F84E0848F83E0858F87E010
:1008F000868F85E0878F81E080A30895F8940C941B
:100900008704EE0FFF1F0590F491E02D0994F894F1
:02091000FFCF17
:100912000D00FF000000008203F6022B0357033B89
:040922000377030054
:00000001FF
